{
  "contractName": "ElectionManagement",
  "abi": [
    {
      "inputs": [],
      "stateMutability": "nonpayable",
      "type": "constructor"
    },
    {
      "anonymous": false,
      "inputs": [
        {
          "indexed": true,
          "internalType": "uint256",
          "name": "electionId",
          "type": "uint256"
        },
        {
          "indexed": true,
          "internalType": "uint256",
          "name": "candidateId",
          "type": "uint256"
        },
        {
          "indexed": false,
          "internalType": "address",
          "name": "voter",
          "type": "address"
        },
        {
          "indexed": false,
          "internalType": "bytes32",
          "name": "voteHash",
          "type": "bytes32"
        }
      ],
      "name": "VoteCasted",
      "type": "event"
    },
    {
      "anonymous": false,
      "inputs": [
        {
          "indexed": true,
          "internalType": "address",
          "name": "voterAddress",
          "type": "address"
        }
      ],
      "name": "VoterApproved",
      "type": "event"
    },
    {
      "anonymous": false,
      "inputs": [
        {
          "indexed": true,
          "internalType": "address",
          "name": "voterAddress",
          "type": "address"
        },
        {
          "indexed": false,
          "internalType": "string",
          "name": "comment",
          "type": "string"
        }
      ],
      "name": "VoterDeclined",
      "type": "event"
    },
    {
      "anonymous": false,
      "inputs": [
        {
          "indexed": true,
          "internalType": "address",
          "name": "voterAddress",
          "type": "address"
        }
      ],
      "name": "VoterRegistered",
      "type": "event"
    },
    {
      "inputs": [],
      "name": "admin",
      "outputs": [
        {
          "internalType": "address",
          "name": "",
          "type": "address"
        }
      ],
      "stateMutability": "view",
      "type": "function",
      "constant": true
    },
    {
      "inputs": [
        {
          "internalType": "uint256",
          "name": "",
          "type": "uint256"
        }
      ],
      "name": "candidateCount",
      "outputs": [
        {
          "internalType": "uint256",
          "name": "",
          "type": "uint256"
        }
      ],
      "stateMutability": "view",
      "type": "function",
      "constant": true
    },
    {
      "inputs": [
        {
          "internalType": "uint256",
          "name": "",
          "type": "uint256"
        },
        {
          "internalType": "uint256",
          "name": "",
          "type": "uint256"
        }
      ],
      "name": "electionCandidates",
      "outputs": [
        {
          "internalType": "uint256",
          "name": "id",
          "type": "uint256"
        },
        {
          "internalType": "string",
          "name": "name",
          "type": "string"
        },
        {
          "internalType": "uint256",
          "name": "voteCount",
          "type": "uint256"
        },
        {
          "internalType": "bool",
          "name": "deleted",
          "type": "bool"
        }
      ],
      "stateMutability": "view",
      "type": "function",
      "constant": true
    },
    {
      "inputs": [],
      "name": "electionCount",
      "outputs": [
        {
          "internalType": "uint256",
          "name": "",
          "type": "uint256"
        }
      ],
      "stateMutability": "view",
      "type": "function",
      "constant": true
    },
    {
      "inputs": [
        {
          "internalType": "uint256",
          "name": "",
          "type": "uint256"
        }
      ],
      "name": "elections",
      "outputs": [
        {
          "internalType": "uint256",
          "name": "id",
          "type": "uint256"
        },
        {
          "internalType": "string",
          "name": "name",
          "type": "string"
        },
        {
          "internalType": "bool",
          "name": "active",
          "type": "bool"
        },
        {
          "internalType": "uint256",
          "name": "endTime",
          "type": "uint256"
        },
        {
          "internalType": "bool",
          "name": "deleted",
          "type": "bool"
        }
      ],
      "stateMutability": "view",
      "type": "function",
      "constant": true
    },
    {
      "inputs": [
        {
          "internalType": "uint256",
          "name": "",
          "type": "uint256"
        },
        {
          "internalType": "address",
          "name": "",
          "type": "address"
        }
      ],
      "name": "hasVoted",
      "outputs": [
        {
          "internalType": "bool",
          "name": "",
          "type": "bool"
        }
      ],
      "stateMutability": "view",
      "type": "function",
      "constant": true
    },
    {
      "inputs": [
        {
          "internalType": "uint256",
          "name": "",
          "type": "uint256"
        }
      ],
      "name": "resultsPublished",
      "outputs": [
        {
          "internalType": "bool",
          "name": "",
          "type": "bool"
        }
      ],
      "stateMutability": "view",
      "type": "function",
      "constant": true
    },
    {
      "inputs": [
        {
          "internalType": "uint256",
          "name": "",
          "type": "uint256"
        },
        {
          "internalType": "address",
          "name": "",
          "type": "address"
        }
      ],
      "name": "voteHashes",
      "outputs": [
        {
          "internalType": "bytes32",
          "name": "",
          "type": "bytes32"
        }
      ],
      "stateMutability": "view",
      "type": "function",
      "constant": true
    },
    {
      "inputs": [
        {
          "internalType": "uint256",
          "name": "",
          "type": "uint256"
        }
      ],
      "name": "voterAddresses",
      "outputs": [
        {
          "internalType": "address",
          "name": "",
          "type": "address"
        }
      ],
      "stateMutability": "view",
      "type": "function",
      "constant": true
    },
    {
      "inputs": [
        {
          "internalType": "address",
          "name": "",
          "type": "address"
        }
      ],
      "name": "voters",
      "outputs": [
        {
          "internalType": "address",
          "name": "voterAddress",
          "type": "address"
        },
        {
          "internalType": "string",
          "name": "name",
          "type": "string"
        },
        {
          "internalType": "string",
          "name": "dob",
          "type": "string"
        },
        {
          "internalType": "string",
          "name": "gender",
          "type": "string"
        },
        {
          "internalType": "string",
          "name": "userAddress",
          "type": "string"
        },
        {
          "internalType": "bool",
          "name": "isApproved",
          "type": "bool"
        },
        {
          "internalType": "bool",
          "name": "isDeclined",
          "type": "bool"
        },
        {
          "internalType": "string",
          "name": "comment",
          "type": "string"
        }
      ],
      "stateMutability": "view",
      "type": "function",
      "constant": true
    },
    {
      "inputs": [
        {
          "internalType": "string",
          "name": "_name",
          "type": "string"
        },
        {
          "internalType": "uint256",
          "name": "_endTime",
          "type": "uint256"
        }
      ],
      "name": "createElection",
      "outputs": [],
      "stateMutability": "nonpayable",
      "type": "function"
    },
    {
      "inputs": [
        {
          "internalType": "uint256",
          "name": "_electionId",
          "type": "uint256"
        }
      ],
      "name": "startElection",
      "outputs": [],
      "stateMutability": "nonpayable",
      "type": "function"
    },
    {
      "inputs": [
        {
          "internalType": "uint256",
          "name": "_electionId",
          "type": "uint256"
        }
      ],
      "name": "stopElection",
      "outputs": [],
      "stateMutability": "nonpayable",
      "type": "function"
    },
    {
      "inputs": [
        {
          "internalType": "uint256",
          "name": "_electionId",
          "type": "uint256"
        }
      ],
      "name": "deleteElection",
      "outputs": [],
      "stateMutability": "nonpayable",
      "type": "function"
    },
    {
      "inputs": [
        {
          "internalType": "uint256",
          "name": "_electionId",
          "type": "uint256"
        }
      ],
      "name": "checkAndStopElection",
      "outputs": [],
      "stateMutability": "nonpayable",
      "type": "function"
    },
    {
      "inputs": [],
      "name": "getElections",
      "outputs": [
        {
          "components": [
            {
              "internalType": "uint256",
              "name": "id",
              "type": "uint256"
            },
            {
              "internalType": "string",
              "name": "name",
              "type": "string"
            },
            {
              "internalType": "bool",
              "name": "active",
              "type": "bool"
            },
            {
              "internalType": "uint256",
              "name": "endTime",
              "type": "uint256"
            },
            {
              "internalType": "bool",
              "name": "deleted",
              "type": "bool"
            }
          ],
          "internalType": "struct ElectionManagement.Election[]",
          "name": "",
          "type": "tuple[]"
        }
      ],
      "stateMutability": "view",
      "type": "function",
      "constant": true
    },
    {
      "inputs": [
        {
          "internalType": "uint256",
          "name": "_electionId",
          "type": "uint256"
        },
        {
          "internalType": "string",
          "name": "_name",
          "type": "string"
        }
      ],
      "name": "addCandidate",
      "outputs": [],
      "stateMutability": "nonpayable",
      "type": "function"
    },
    {
      "inputs": [
        {
          "internalType": "uint256",
          "name": "_electionId",
          "type": "uint256"
        },
        {
          "internalType": "uint256",
          "name": "_candidateId",
          "type": "uint256"
        }
      ],
      "name": "deleteCandidate",
      "outputs": [],
      "stateMutability": "nonpayable",
      "type": "function"
    },
    {
      "inputs": [
        {
          "internalType": "uint256",
          "name": "_electionId",
          "type": "uint256"
        }
      ],
      "name": "getCandidates",
      "outputs": [
        {
          "components": [
            {
              "internalType": "uint256",
              "name": "id",
              "type": "uint256"
            },
            {
              "internalType": "string",
              "name": "name",
              "type": "string"
            },
            {
              "internalType": "uint256",
              "name": "voteCount",
              "type": "uint256"
            },
            {
              "internalType": "bool",
              "name": "deleted",
              "type": "bool"
            }
          ],
          "internalType": "struct ElectionManagement.Candidate[]",
          "name": "",
          "type": "tuple[]"
        }
      ],
      "stateMutability": "view",
      "type": "function",
      "constant": true
    },
    {
      "inputs": [
        {
          "internalType": "string",
          "name": "_name",
          "type": "string"
        },
        {
          "internalType": "string",
          "name": "_dob",
          "type": "string"
        },
        {
          "internalType": "string",
          "name": "_gender",
          "type": "string"
        },
        {
          "internalType": "string",
          "name": "_userAddress",
          "type": "string"
        }
      ],
      "name": "registerVoter",
      "outputs": [],
      "stateMutability": "nonpayable",
      "type": "function"
    },
    {
      "inputs": [
        {
          "internalType": "address",
          "name": "_voterAddress",
          "type": "address"
        }
      ],
      "name": "approveVoter",
      "outputs": [],
      "stateMutability": "nonpayable",
      "type": "function"
    },
    {
      "inputs": [
        {
          "internalType": "address",
          "name": "_voterAddress",
          "type": "address"
        },
        {
          "internalType": "string",
          "name": "_comment",
          "type": "string"
        }
      ],
      "name": "declineVoter",
      "outputs": [],
      "stateMutability": "nonpayable",
      "type": "function"
    },
    {
      "inputs": [],
      "name": "getVoterStatus",
      "outputs": [
        {
          "internalType": "bool",
          "name": "",
          "type": "bool"
        },
        {
          "internalType": "bool",
          "name": "",
          "type": "bool"
        },
        {
          "internalType": "string",
          "name": "",
          "type": "string"
        }
      ],
      "stateMutability": "view",
      "type": "function",
      "constant": true
    },
    {
      "inputs": [],
      "name": "getAllVoters",
      "outputs": [
        {
          "components": [
            {
              "internalType": "address",
              "name": "voterAddress",
              "type": "address"
            },
            {
              "internalType": "string",
              "name": "name",
              "type": "string"
            },
            {
              "internalType": "string",
              "name": "dob",
              "type": "string"
            },
            {
              "internalType": "string",
              "name": "gender",
              "type": "string"
            },
            {
              "internalType": "string",
              "name": "userAddress",
              "type": "string"
            },
            {
              "internalType": "bool",
              "name": "isApproved",
              "type": "bool"
            },
            {
              "internalType": "bool",
              "name": "isDeclined",
              "type": "bool"
            },
            {
              "internalType": "string",
              "name": "comment",
              "type": "string"
            }
          ],
          "internalType": "struct ElectionManagement.Voter[]",
          "name": "",
          "type": "tuple[]"
        }
      ],
      "stateMutability": "view",
      "type": "function",
      "constant": true
    },
    {
      "inputs": [
        {
          "internalType": "uint256",
          "name": "_electionId",
          "type": "uint256"
        },
        {
          "internalType": "uint256",
          "name": "_candidateId",
          "type": "uint256"
        }
      ],
      "name": "vote",
      "outputs": [],
      "stateMutability": "nonpayable",
      "type": "function"
    },
    {
      "inputs": [
        {
          "internalType": "uint256",
          "name": "_electionId",
          "type": "uint256"
        }
      ],
      "name": "hasVotedInElection",
      "outputs": [
        {
          "internalType": "bool",
          "name": "",
          "type": "bool"
        }
      ],
      "stateMutability": "view",
      "type": "function",
      "constant": true
    },
    {
      "inputs": [
        {
          "internalType": "uint256",
          "name": "_electionId",
          "type": "uint256"
        }
      ],
      "name": "getVoteHash",
      "outputs": [
        {
          "internalType": "bytes32",
          "name": "",
          "type": "bytes32"
        }
      ],
      "stateMutability": "view",
      "type": "function",
      "constant": true
    },
    {
      "inputs": [
        {
          "internalType": "uint256",
          "name": "_electionId",
          "type": "uint256"
        }
      ],
      "name": "getElectionResults",
      "outputs": [
        {
          "components": [
            {
              "internalType": "uint256",
              "name": "id",
              "type": "uint256"
            },
            {
              "internalType": "string",
              "name": "name",
              "type": "string"
            },
            {
              "internalType": "uint256",
              "name": "voteCount",
              "type": "uint256"
            },
            {
              "internalType": "bool",
              "name": "deleted",
              "type": "bool"
            }
          ],
          "internalType": "struct ElectionManagement.Candidate[]",
          "name": "",
          "type": "tuple[]"
        }
      ],
      "stateMutability": "view",
      "type": "function",
      "constant": true
    },
    {
      "inputs": [
        {
          "internalType": "uint256",
          "name": "_electionId",
          "type": "uint256"
        }
      ],
      "name": "publishResults",
      "outputs": [],
      "stateMutability": "nonpayable",
      "type": "function"
    },
    {
      "inputs": [
        {
          "internalType": "uint256",
          "name": "_electionId",
          "type": "uint256"
        }
      ],
      "name": "isResultsPublished",
      "outputs": [
        {
          "internalType": "bool",
          "name": "",
          "type": "bool"
        }
      ],
      "stateMutability": "view",
      "type": "function",
      "constant": true
    }
  ],
  "bytecode": "0x608060405234801561001057600080fd5b50336000806101000a81548173ffffffffffffffffffffffffffffffffffffffff021916908373ffffffffffffffffffffffffffffffffffffffff16021790555061578380620000616000396000f3fe608060405234801561001057600080fd5b50600436106101da5760003560e01c80639f3a7f5211610104578063cf4a6060116100a2578063efd6e75411610071578063efd6e754146105bb578063f84e6f74146105d7578063f851a44014610607578063ffe172c014610625576101da565b8063cf4a60601461050f578063d1872bd41461052b578063dd0e23731461055b578063e8ededa61461058b576101da565b8063aa2de6de116100de578063aa2de6de14610477578063b1ff97c1146104a7578063b384abef146104d7578063bfad9cc0146104f3576101da565b80639f3a7f52146103ef578063a3ec138d1461040d578063a42c56f714610444576101da565b80635a50f0751161017c578063740c47d41161014b578063740c47d41461036957806390b9c86b14610385578063997d2830146103a15780639ce7424a146103bf576101da565b80635a50f075146102e15780635e6fef01146102fd5780636b0ea381146103315780636d32dc4b1461034d576101da565b806335bbe70e116101b857806335bbe70e146102475780633e39a7a514610265578063432cf2ce1461029557806343859632146102b1576101da565b8063086a94e1146101df578063119d4ddb1461020f5780631750a3d01461022b575b600080fd5b6101f960048036038101906101f49190614337565b610645565b6040516102069190614fc7565b60405180910390f35b610229600480360381019061022491906141a3565b6106ac565b005b6102456004803603810190610240919061439c565b6108c7565b005b61024f610aed565b60405161025c9190614fa5565b60405180910390f35b61027f600480360381019061027a9190614337565b610ff6565b60405161028c9190614f61565b60405180910390f35b6102af60048036038101906102aa91906142e3565b611366565b005b6102cb60048036038101906102c69190614360565b6114c8565b6040516102d89190614fc7565b60405180910390f35b6102fb60048036038101906102f69190614337565b6114f7565b005b61031760048036038101906103129190614337565b6116cf565b6040516103289594939291906152d8565b60405180910390f35b61034b600480360381019061034691906141cc565b6117a7565b005b61036760048036038101906103629190614337565b611a25565b005b610383600480360381019061037e9190614337565b611bfd565b005b61039f600480360381019061039a9190614220565b611f1b565b005b6103a96124ea565b6040516103b691906152bd565b60405180910390f35b6103d960048036038101906103d49190614337565b6124f0565b6040516103e69190615020565b60405180910390f35b6103f761254a565b6040516104049190614f83565b60405180910390f35b610427600480360381019061042291906141a3565b6127c9565b60405161043b989796959493929190614ec0565b60405180910390f35b61045e600480360381019061045991906143f0565b612af3565b60405161046e9493929190615332565b60405180910390f35b610491600480360381019061048c9190614337565b612bc5565b60405161049e9190614fc7565b60405180910390f35b6104c160048036038101906104bc9190614337565b612be5565b6040516104ce91906152bd565b60405180910390f35b6104f160048036038101906104ec91906143f0565b612bfd565b005b61050d60048036038101906105089190614337565b6130db565b005b610529600480360381019061052491906143f0565b613307565b005b61054560048036038101906105409190614337565b613501565b6040516105529190614fc7565b60405180910390f35b61057560048036038101906105709190614337565b61352b565b6040516105829190614e7c565b60405180910390f35b6105a560048036038101906105a09190614337565b61356a565b6040516105b29190614f61565b60405180910390f35b6105d560048036038101906105d09190614337565b613932565b005b6105f160048036038101906105ec9190614360565b613a36565b6040516105fe9190615020565b60405180910390f35b61060f613a5b565b60405161061c9190614e7c565b60405180910390f35b61062d613a7f565b60405161063c93929190614fe2565b60405180910390f35b60006007600083815260200190815260200160002060003373ffffffffffffffffffffffffffffffffffffffff1673ffffffffffffffffffffffffffffffffffffffff16815260200190815260200160002060009054906101000a900460ff169050919050565b60008054906101000a900473ffffffffffffffffffffffffffffffffffffffff1673ffffffffffffffffffffffffffffffffffffffff163373ffffffffffffffffffffffffffffffffffffffff161461073a576040517f08c379a0000000000000000000000000000000000000000000000000000000008152600401610731906151dd565b60405180910390fd5b6000600460008373ffffffffffffffffffffffffffffffffffffffff1673ffffffffffffffffffffffffffffffffffffffff1681526020019081526020016000206001018054610789906155cb565b9050116107cb576040517f08c379a00000000000000000000000000000000000000000000000000000000081526004016107c29061509d565b60405180910390fd5b6001600460008373ffffffffffffffffffffffffffffffffffffffff1673ffffffffffffffffffffffffffffffffffffffff16815260200190815260200160002060050160006101000a81548160ff0219169083151502179055506000600460008373ffffffffffffffffffffffffffffffffffffffff1673ffffffffffffffffffffffffffffffffffffffff16815260200190815260200160002060050160016101000a81548160ff0219169083151502179055508073ffffffffffffffffffffffffffffffffffffffff167f85e209912e11195144f49695f608785c8a31876f9d5d831813c396126a21b48460405160405180910390a250565b60008054906101000a900473ffffffffffffffffffffffffffffffffffffffff1673ffffffffffffffffffffffffffffffffffffffff163373ffffffffffffffffffffffffffffffffffffffff1614610955576040517f08c379a000000000000000000000000000000000000000000000000000000000815260040161094c906151dd565b60405180910390fd5b60008211801561096757506006548211155b6109a6576040517f08c379a000000000000000000000000000000000000000000000000000000000815260040161099d9061515d565b60405180910390fd5b6001600083815260200190815260200160002060040160009054906101000a900460ff1615610a0a576040517f08c379a0000000000000000000000000000000000000000000000000000000008152600401610a019061505d565b60405180910390fd5b600360008381526020019081526020016000206000815480929190610a2e906155fd565b919050555060006003600084815260200190815260200160002054905060405180608001604052808281526020018381526020016000815260200160001515815250600260008581526020019081526020016000206000838152602001908152602001600020600082015181600001556020820151816001019080519060200190610aba929190613ee5565b506040820151816002015560608201518160030160006101000a81548160ff021916908315150217905550905050505050565b6060600060058054905067ffffffffffffffff811115610b36577f4e487b7100000000000000000000000000000000000000000000000000000000600052604160045260246000fd5b604051908082528060200260200182016040528015610b6f57816020015b610b5c613f6b565b815260200190600190039081610b545790505b50905060005b600580549050811015610fee576004600060058381548110610bc0577f4e487b7100000000000000000000000000000000000000000000000000000000600052603260045260246000fd5b9060005260206000200160009054906101000a900473ffffffffffffffffffffffffffffffffffffffff1673ffffffffffffffffffffffffffffffffffffffff1673ffffffffffffffffffffffffffffffffffffffff168152602001908152602001600020604051806101000160405290816000820160009054906101000a900473ffffffffffffffffffffffffffffffffffffffff1673ffffffffffffffffffffffffffffffffffffffff1673ffffffffffffffffffffffffffffffffffffffff168152602001600182018054610c97906155cb565b80601f0160208091040260200160405190810160405280929190818152602001828054610cc3906155cb565b8015610d105780601f10610ce557610100808354040283529160200191610d10565b820191906000526020600020905b815481529060010190602001808311610cf357829003601f168201915b50505050508152602001600282018054610d29906155cb565b80601f0160208091040260200160405190810160405280929190818152602001828054610d55906155cb565b8015610da25780601f10610d7757610100808354040283529160200191610da2565b820191906000526020600020905b815481529060010190602001808311610d8557829003601f168201915b50505050508152602001600382018054610dbb906155cb565b80601f0160208091040260200160405190810160405280929190818152602001828054610de7906155cb565b8015610e345780601f10610e0957610100808354040283529160200191610e34565b820191906000526020600020905b815481529060010190602001808311610e1757829003601f168201915b50505050508152602001600482018054610e4d906155cb565b80601f0160208091040260200160405190810160405280929190818152602001828054610e79906155cb565b8015610ec65780601f10610e9b57610100808354040283529160200191610ec6565b820191906000526020600020905b815481529060010190602001808311610ea957829003601f168201915b505050505081526020016005820160009054906101000a900460ff161515151581526020016005820160019054906101000a900460ff16151515158152602001600682018054610f15906155cb565b80601f0160208091040260200160405190810160405280929190818152602001828054610f41906155cb565b8015610f8e5780601f10610f6357610100808354040283529160200191610f8e565b820191906000526020600020905b815481529060010190602001808311610f7157829003601f168201915b505050505081525050828281518110610fd0577f4e487b7100000000000000000000000000000000000000000000000000000000600052603260045260246000fd5b60200260200101819052508080610fe6906155fd565b915050610b75565b508091505090565b606060008211801561100a57506006548211155b611049576040517f08c379a00000000000000000000000000000000000000000000000000000000081526004016110409061515d565b60405180910390fd5b6001600083815260200190815260200160002060040160009054906101000a900460ff16156110ad576040517f08c379a00000000000000000000000000000000000000000000000000000000081526004016110a49061505d565b60405180910390fd5b600080600190505b6003600085815260200190815260200160002054811161112a5760026000858152602001908152602001600020600082815260200190815260200160002060030160009054906101000a900460ff16611117578180611113906155fd565b9250505b8080611122906155fd565b9150506110b5565b5060008167ffffffffffffffff81111561116d577f4e487b7100000000000000000000000000000000000000000000000000000000600052604160045260246000fd5b6040519080825280602002602001820160405280156111a657816020015b611193613fca565b81526020019060019003908161118b5790505b509050600080600190505b6003600087815260200190815260200160002054811161135a5760026000878152602001908152602001600020600082815260200190815260200160002060030160009054906101000a900460ff16611347576002600087815260200190815260200160002060008281526020019081526020016000206040518060800160405290816000820154815260200160018201805461124d906155cb565b80601f0160208091040260200160405190810160405280929190818152602001828054611279906155cb565b80156112c65780601f1061129b576101008083540402835291602001916112c6565b820191906000526020600020905b8154815290600101906020018083116112a957829003601f168201915b50505050508152602001600282015481526020016003820160009054906101000a900460ff16151515158152505083838151811061132d577f4e487b7100000000000000000000000000000000000000000000000000000000600052603260045260246000fd5b60200260200101819052508180611343906155fd565b9250505b8080611352906155fd565b9150506111b1565b50819350505050919050565b60008054906101000a900473ffffffffffffffffffffffffffffffffffffffff1673ffffffffffffffffffffffffffffffffffffffff163373ffffffffffffffffffffffffffffffffffffffff16146113f4576040517f08c379a00000000000000000000000000000000000000000000000000000000081526004016113eb906151dd565b60405180910390fd5b60066000815480929190611407906155fd565b91905055506040518060a00160405280600654815260200183815260200160001515815260200182815260200160001515815250600160006006548152602001908152602001600020600082015181600001556020820151816001019080519060200190611476929190613ee5565b5060408201518160020160006101000a81548160ff0219169083151502179055506060820151816003015560808201518160040160006101000a81548160ff0219169083151502179055509050505050565b60076020528160005260406000206020528060005260406000206000915091509054906101000a900460ff1681565b60008054906101000a900473ffffffffffffffffffffffffffffffffffffffff1673ffffffffffffffffffffffffffffffffffffffff163373ffffffffffffffffffffffffffffffffffffffff1614611585576040517f08c379a000000000000000000000000000000000000000000000000000000000815260040161157c906151dd565b60405180910390fd5b60008111801561159757506006548111155b6115d6576040517f08c379a00000000000000000000000000000000000000000000000000000000081526004016115cd9061515d565b60405180910390fd5b6001600082815260200190815260200160002060020160009054906101000a900460ff16611639576040517f08c379a00000000000000000000000000000000000000000000000000000000081526004016116309061521d565b60405180910390fd5b6001600082815260200190815260200160002060040160009054906101000a900460ff161561169d576040517f08c379a00000000000000000000000000000000000000000000000000000000081526004016116949061505d565b60405180910390fd5b60006001600083815260200190815260200160002060020160006101000a81548160ff02191690831515021790555050565b60016020528060005260406000206000915090508060000154908060010180546116f8906155cb565b80601f0160208091040260200160405190810160405280929190818152602001828054611724906155cb565b80156117715780601f1061174657610100808354040283529160200191611771565b820191906000526020600020905b81548152906001019060200180831161175457829003601f168201915b5050505050908060020160009054906101000a900460ff16908060030154908060040160009054906101000a900460ff16905085565b60008054906101000a900473ffffffffffffffffffffffffffffffffffffffff1673ffffffffffffffffffffffffffffffffffffffff163373ffffffffffffffffffffffffffffffffffffffff1614611835576040517f08c379a000000000000000000000000000000000000000000000000000000000815260040161182c906151dd565b60405180910390fd5b6000600460008473ffffffffffffffffffffffffffffffffffffffff1673ffffffffffffffffffffffffffffffffffffffff1681526020019081526020016000206001018054611884906155cb565b9050116118c6576040517f08c379a00000000000000000000000000000000000000000000000000000000081526004016118bd9061509d565b60405180910390fd5b6000600460008473ffffffffffffffffffffffffffffffffffffffff1673ffffffffffffffffffffffffffffffffffffffff16815260200190815260200160002060050160006101000a81548160ff0219169083151502179055506001600460008473ffffffffffffffffffffffffffffffffffffffff1673ffffffffffffffffffffffffffffffffffffffff16815260200190815260200160002060050160016101000a81548160ff02191690831515021790555080600460008473ffffffffffffffffffffffffffffffffffffffff1673ffffffffffffffffffffffffffffffffffffffff16815260200190815260200160002060060190805190602001906119d2929190613ee5565b508173ffffffffffffffffffffffffffffffffffffffff167f01aab3f1380272427a50f17b413d8ca6251609d1ebc0b4eaecbb04592847755a82604051611a19919061503b565b60405180910390a25050565b60008054906101000a900473ffffffffffffffffffffffffffffffffffffffff1673ffffffffffffffffffffffffffffffffffffffff163373ffffffffffffffffffffffffffffffffffffffff1614611ab3576040517f08c379a0000000000000000000000000000000000000000000000000000000008152600401611aaa906151dd565b60405180910390fd5b600081118015611ac557506006548111155b611b04576040517f08c379a0000000000000000000000000000000000000000000000000000000008152600401611afb9061515d565b60405180910390fd5b6001600082815260200190815260200160002060020160009054906101000a900460ff1615611b68576040517f08c379a0000000000000000000000000000000000000000000000000000000008152600401611b5f9061529d565b60405180910390fd5b6001600082815260200190815260200160002060040160009054906101000a900460ff1615611bcc576040517f08c379a0000000000000000000000000000000000000000000000000000000008152600401611bc39061505d565b60405180910390fd5b600180600083815260200190815260200160002060020160006101000a81548160ff02191690831515021790555050565b60008054906101000a900473ffffffffffffffffffffffffffffffffffffffff1673ffffffffffffffffffffffffffffffffffffffff163373ffffffffffffffffffffffffffffffffffffffff1614611c8b576040517f08c379a0000000000000000000000000000000000000000000000000000000008152600401611c82906151dd565b60405180910390fd5b600081118015611c9d57506006548111155b611cdc576040517f08c379a0000000000000000000000000000000000000000000000000000000008152600401611cd39061515d565b60405180910390fd5b6001600082815260200190815260200160002060040160009054906101000a900460ff1615611d40576040517f08c379a0000000000000000000000000000000000000000000000000000000008152600401611d37906150bd565b60405180910390fd5b60016000828152602001908152602001600020600080820160009055600182016000611d6c9190613ff4565b6002820160006101000a81549060ff021916905560038201600090556004820160006101000a81549060ff0219169055505060008190505b600654811015611e9f5760016000600183611dbf91906154b7565b815260200190815260200160002060016000838152602001908152602001600020600082015481600001556001820181600101908054611dfe906155cb565b611e09929190614034565b506002820160009054906101000a900460ff168160020160006101000a81548160ff021916908315150217905550600382015481600301556004820160009054906101000a900460ff168160040160006101000a81548160ff0219169083151502179055509050508060016000838152602001908152602001600020600001819055508080611e97906155fd565b915050611da4565b50600160006006548152602001908152602001600020600080820160009055600182016000611ece9190613ff4565b6002820160006101000a81549060ff021916905560038201600090556004820160006101000a81549060ff0219169055505060066000815480929190611f13906155a1565b919050555050565b600460003373ffffffffffffffffffffffffffffffffffffffff1673ffffffffffffffffffffffffffffffffffffffff16815260200190815260200160002060050160019054906101000a900460ff16156121ed5783600460003373ffffffffffffffffffffffffffffffffffffffff1673ffffffffffffffffffffffffffffffffffffffff1681526020019081526020016000206001019080519060200190611fc6929190613ee5565b5082600460003373ffffffffffffffffffffffffffffffffffffffff1673ffffffffffffffffffffffffffffffffffffffff168152602001908152602001600020600201908051906020019061201d929190613ee5565b5081600460003373ffffffffffffffffffffffffffffffffffffffff1673ffffffffffffffffffffffffffffffffffffffff1681526020019081526020016000206003019080519060200190612074929190613ee5565b5080600460003373ffffffffffffffffffffffffffffffffffffffff1673ffffffffffffffffffffffffffffffffffffffff16815260200190815260200160002060040190805190602001906120cb929190613ee5565b506000600460003373ffffffffffffffffffffffffffffffffffffffff1673ffffffffffffffffffffffffffffffffffffffff16815260200190815260200160002060050160006101000a81548160ff0219169083151502179055506000600460003373ffffffffffffffffffffffffffffffffffffffff1673ffffffffffffffffffffffffffffffffffffffff16815260200190815260200160002060050160016101000a81548160ff02191690831515021790555060405180602001604052806000815250600460003373ffffffffffffffffffffffffffffffffffffffff1673ffffffffffffffffffffffffffffffffffffffff16815260200190815260200160002060060190805190602001906121e7929190613ee5565b506124a1565b6000600460003373ffffffffffffffffffffffffffffffffffffffff1673ffffffffffffffffffffffffffffffffffffffff168152602001908152602001600020600101805461223c906155cb565b90501461227e576040517f08c379a00000000000000000000000000000000000000000000000000000000081526004016122759061517d565b60405180910390fd5b6040518061010001604052803373ffffffffffffffffffffffffffffffffffffffff16815260200185815260200184815260200183815260200182815260200160001515815260200160001515815260200160405180602001604052806000815250815250600460003373ffffffffffffffffffffffffffffffffffffffff1673ffffffffffffffffffffffffffffffffffffffff16815260200190815260200160002060008201518160000160006101000a81548173ffffffffffffffffffffffffffffffffffffffff021916908373ffffffffffffffffffffffffffffffffffffffff1602179055506020820151816001019080519060200190612385929190613ee5565b5060408201518160020190805190602001906123a2929190613ee5565b5060608201518160030190805190602001906123bf929190613ee5565b5060808201518160040190805190602001906123dc929190613ee5565b5060a08201518160050160006101000a81548160ff02191690831515021790555060c08201518160050160016101000a81548160ff02191690831515021790555060e0820151816006019080519060200190612439929190613ee5565b509050506005339080600181540180825580915050600190039060005260206000200160009091909190916101000a81548173ffffffffffffffffffffffffffffffffffffffff021916908373ffffffffffffffffffffffffffffffffffffffff1602179055505b3373ffffffffffffffffffffffffffffffffffffffff167fb6be2187d059cc2a55fe29e0e503b566e1e0f8c8780096e185429350acffd3dd60405160405180910390a250505050565b60065481565b60006008600083815260200190815260200160002060003373ffffffffffffffffffffffffffffffffffffffff1673ffffffffffffffffffffffffffffffffffffffff168152602001908152602001600020549050919050565b6060600080600190505b60065481116125a7576001600082815260200190815260200160002060040160009054906101000a900460ff16612594578180612590906155fd565b9250505b808061259f906155fd565b915050612554565b5060008167ffffffffffffffff8111156125ea577f4e487b7100000000000000000000000000000000000000000000000000000000600052604160045260246000fd5b60405190808252806020026020018201604052801561262357816020015b6126106140c1565b8152602001906001900390816126085790505b509050600080600190505b60065481116127bf576001600082815260200190815260200160002060040160009054906101000a900460ff166127ac57600160008281526020019081526020016000206040518060a001604052908160008201548152602001600182018054612697906155cb565b80601f01602080910402602001604051908101604052809291908181526020018280546126c3906155cb565b80156127105780601f106126e557610100808354040283529160200191612710565b820191906000526020600020905b8154815290600101906020018083116126f357829003601f168201915b505050505081526020016002820160009054906101000a900460ff16151515158152602001600382015481526020016004820160009054906101000a900460ff161515151581525050838381518110612792577f4e487b7100000000000000000000000000000000000000000000000000000000600052603260045260246000fd5b602002602001018190525081806127a8906155fd565b9250505b80806127b7906155fd565b91505061262e565b5081935050505090565b60046020528060005260406000206000915090508060000160009054906101000a900473ffffffffffffffffffffffffffffffffffffffff1690806001018054612812906155cb565b80601f016020809104026020016040519081016040528092919081815260200182805461283e906155cb565b801561288b5780601f106128605761010080835404028352916020019161288b565b820191906000526020600020905b81548152906001019060200180831161286e57829003601f168201915b5050505050908060020180546128a0906155cb565b80601f01602080910402602001604051908101604052809291908181526020018280546128cc906155cb565b80156129195780601f106128ee57610100808354040283529160200191612919565b820191906000526020600020905b8154815290600101906020018083116128fc57829003601f168201915b50505050509080600301805461292e906155cb565b80601f016020809104026020016040519081016040528092919081815260200182805461295a906155cb565b80156129a75780601f1061297c576101008083540402835291602001916129a7565b820191906000526020600020905b81548152906001019060200180831161298a57829003601f168201915b5050505050908060040180546129bc906155cb565b80601f01602080910402602001604051908101604052809291908181526020018280546129e8906155cb565b8015612a355780601f10612a0a57610100808354040283529160200191612a35565b820191906000526020600020905b815481529060010190602001808311612a1857829003601f168201915b5050505050908060050160009054906101000a900460ff16908060050160019054906101000a900460ff1690806006018054612a70906155cb565b80601f0160208091040260200160405190810160405280929190818152602001828054612a9c906155cb565b8015612ae95780601f10612abe57610100808354040283529160200191612ae9565b820191906000526020600020905b815481529060010190602001808311612acc57829003601f168201915b5050505050905088565b600260205281600052604060002060205280600052604060002060009150915050806000015490806001018054612b29906155cb565b80601f0160208091040260200160405190810160405280929190818152602001828054612b55906155cb565b8015612ba25780601f10612b7757610100808354040283529160200191612ba2565b820191906000526020600020905b815481529060010190602001808311612b8557829003601f168201915b5050505050908060020154908060030160009054906101000a900460ff16905084565b60096020528060005260406000206000915054906101000a900460ff1681565b60036020528060005260406000206000915090505481565b600082118015612c0f57506006548211155b612c4e576040517f08c379a0000000000000000000000000000000000000000000000000000000008152600401612c459061515d565b60405180910390fd5b6001600083815260200190815260200160002060020160009054906101000a900460ff16612cb1576040517f08c379a0000000000000000000000000000000000000000000000000000000008152600401612ca89061523d565b60405180910390fd5b6001600083815260200190815260200160002060040160009054906101000a900460ff1615612d15576040517f08c379a0000000000000000000000000000000000000000000000000000000008152600401612d0c9061505d565b60405180910390fd5b60016000838152602001908152602001600020600301544210612d6d576040517f08c379a0000000000000000000000000000000000000000000000000000000008152600401612d649061507d565b60405180910390fd5b6007600083815260200190815260200160002060003373ffffffffffffffffffffffffffffffffffffffff1673ffffffffffffffffffffffffffffffffffffffff16815260200190815260200160002060009054906101000a900460ff1615612e0b576040517f08c379a0000000000000000000000000000000000000000000000000000000008152600401612e02906150dd565b60405180910390fd5b600081118015612e2e575060036000838152602001908152602001600020548111155b612e6d576040517f08c379a0000000000000000000000000000000000000000000000000000000008152600401612e649061525d565b60405180910390fd5b600460003373ffffffffffffffffffffffffffffffffffffffff1673ffffffffffffffffffffffffffffffffffffffff16815260200190815260200160002060050160009054906101000a900460ff16612efc576040517f08c379a0000000000000000000000000000000000000000000000000000000008152600401612ef39061511d565b60405180910390fd5b60026000838152602001908152602001600020600082815260200190815260200160002060030160009054906101000a900460ff1615612f71576040517f08c379a0000000000000000000000000000000000000000000000000000000008152600401612f689061513d565b60405180910390fd5b6002600083815260200190815260200160002060008281526020019081526020016000206002016000815480929190612fa9906155fd565b919050555060016007600084815260200190815260200160002060003373ffffffffffffffffffffffffffffffffffffffff1673ffffffffffffffffffffffffffffffffffffffff16815260200190815260200160002060006101000a81548160ff021916908315150217905550600082823360405160200161302e93929190614e3f565b604051602081830303815290604052805190602001209050806008600085815260200190815260200160002060003373ffffffffffffffffffffffffffffffffffffffff1673ffffffffffffffffffffffffffffffffffffffff1681526020019081526020016000208190555081837f19796ef9e36d402e374be8e9aed26e1d8a337176950bf358f3fff7842bcb074e33846040516130ce929190614e97565b60405180910390a3505050565b60008054906101000a900473ffffffffffffffffffffffffffffffffffffffff1673ffffffffffffffffffffffffffffffffffffffff163373ffffffffffffffffffffffffffffffffffffffff1614613169576040517f08c379a0000000000000000000000000000000000000000000000000000000008152600401613160906151dd565b60405180910390fd5b60008111801561317b57506006548111155b6131ba576040517f08c379a00000000000000000000000000000000000000000000000000000000081526004016131b19061515d565b60405180910390fd5b6001600082815260200190815260200160002060040160009054906101000a900460ff161561321e576040517f08c379a00000000000000000000000000000000000000000000000000000000081526004016132159061505d565b60405180910390fd5b6001600082815260200190815260200160002060030154421015613277576040517f08c379a000000000000000000000000000000000000000000000000000000000815260040161326e906151bd565b60405180910390fd5b6009600082815260200190815260200160002060009054906101000a900460ff16156132d8576040517f08c379a00000000000000000000000000000000000000000000000000000000081526004016132cf906150fd565b60405180910390fd5b60016009600083815260200190815260200160002060006101000a81548160ff02191690831515021790555050565b60008054906101000a900473ffffffffffffffffffffffffffffffffffffffff1673ffffffffffffffffffffffffffffffffffffffff163373ffffffffffffffffffffffffffffffffffffffff1614613395576040517f08c379a000000000000000000000000000000000000000000000000000000000815260040161338c906151dd565b60405180910390fd5b6000821180156133a757506006548211155b6133e6576040517f08c379a00000000000000000000000000000000000000000000000000000000081526004016133dd9061515d565b60405180910390fd5b600081118015613409575060036000838152602001908152602001600020548111155b613448576040517f08c379a000000000000000000000000000000000000000000000000000000000815260040161343f9061525d565b60405180910390fd5b60026000838152602001908152602001600020600082815260200190815260200160002060030160009054906101000a900460ff16156134bd576040517f08c379a00000000000000000000000000000000000000000000000000000000081526004016134b49061527d565b60405180910390fd5b600160026000848152602001908152602001600020600083815260200190815260200160002060030160006101000a81548160ff0219169083151502179055505050565b60006009600083815260200190815260200160002060009054906101000a900460ff169050919050565b6005818154811061353b57600080fd5b906000526020600020016000915054906101000a900473ffffffffffffffffffffffffffffffffffffffff1681565b606060008211801561357e57506006548211155b6135bd576040517f08c379a00000000000000000000000000000000000000000000000000000000081526004016135b49061515d565b60405180910390fd5b6001600083815260200190815260200160002060040160009054906101000a900460ff1615613621576040517f08c379a00000000000000000000000000000000000000000000000000000000081526004016136189061505d565b60405180910390fd5b60016000838152602001908152602001600020600301544211613679576040517f08c379a00000000000000000000000000000000000000000000000000000000081526004016136709061519d565b60405180910390fd5b600080600190505b600360008581526020019081526020016000205481116136f65760026000858152602001908152602001600020600082815260200190815260200160002060030160009054906101000a900460ff166136e35781806136df906155fd565b9250505b80806136ee906155fd565b915050613681565b5060008167ffffffffffffffff811115613739577f4e487b7100000000000000000000000000000000000000000000000000000000600052604160045260246000fd5b60405190808252806020026020018201604052801561377257816020015b61375f613fca565b8152602001906001900390816137575790505b509050600080600190505b600360008781526020019081526020016000205481116139265760026000878152602001908152602001600020600082815260200190815260200160002060030160009054906101000a900460ff166139135760026000878152602001908152602001600020600082815260200190815260200160002060405180608001604052908160008201548152602001600182018054613819906155cb565b80601f0160208091040260200160405190810160405280929190818152602001828054613845906155cb565b80156138925780601f1061386757610100808354040283529160200191613892565b820191906000526020600020905b81548152906001019060200180831161387557829003601f168201915b50505050508152602001600282015481526020016003820160009054906101000a900460ff1615151515815250508383815181106138f9577f4e487b7100000000000000000000000000000000000000000000000000000000600052603260045260246000fd5b6020026020010181905250818061390f906155fd565b9250505b808061391e906155fd565b91505061377d565b50819350505050919050565b60008111801561394457506006548111155b613983576040517f08c379a000000000000000000000000000000000000000000000000000000000815260040161397a9061515d565b60405180910390fd5b6001600082815260200190815260200160002060020160009054906101000a900460ff166139e6576040517f08c379a00000000000000000000000000000000000000000000000000000000081526004016139dd9061521d565b60405180910390fd5b60016000828152602001908152602001600020600301544210613a335760006001600083815260200190815260200160002060020160006101000a81548160ff0219169083151502179055505b50565b6008602052816000526040600020602052806000526040600020600091509150505481565b60008054906101000a900473ffffffffffffffffffffffffffffffffffffffff1681565b60008060606000600460003373ffffffffffffffffffffffffffffffffffffffff1673ffffffffffffffffffffffffffffffffffffffff1681526020019081526020016000206001018054613ad3906155cb565b905011613b15576040517f08c379a0000000000000000000000000000000000000000000000000000000008152600401613b0c906151fd565b60405180910390fd5b6000600460003373ffffffffffffffffffffffffffffffffffffffff1673ffffffffffffffffffffffffffffffffffffffff168152602001908152602001600020604051806101000160405290816000820160009054906101000a900473ffffffffffffffffffffffffffffffffffffffff1673ffffffffffffffffffffffffffffffffffffffff1673ffffffffffffffffffffffffffffffffffffffff168152602001600182018054613bc8906155cb565b80601f0160208091040260200160405190810160405280929190818152602001828054613bf4906155cb565b8015613c415780601f10613c1657610100808354040283529160200191613c41565b820191906000526020600020905b815481529060010190602001808311613c2457829003601f168201915b50505050508152602001600282018054613c5a906155cb565b80601f0160208091040260200160405190810160405280929190818152602001828054613c86906155cb565b8015613cd35780601f10613ca857610100808354040283529160200191613cd3565b820191906000526020600020905b815481529060010190602001808311613cb657829003601f168201915b50505050508152602001600382018054613cec906155cb565b80601f0160208091040260200160405190810160405280929190818152602001828054613d18906155cb565b8015613d655780601f10613d3a57610100808354040283529160200191613d65565b820191906000526020600020905b815481529060010190602001808311613d4857829003601f168201915b50505050508152602001600482018054613d7e906155cb565b80601f0160208091040260200160405190810160405280929190818152602001828054613daa906155cb565b8015613df75780601f10613dcc57610100808354040283529160200191613df7565b820191906000526020600020905b815481529060010190602001808311613dda57829003601f168201915b505050505081526020016005820160009054906101000a900460ff161515151581526020016005820160019054906101000a900460ff16151515158152602001600682018054613e46906155cb565b80601f0160208091040260200160405190810160405280929190818152602001828054613e72906155cb565b8015613ebf5780601f10613e9457610100808354040283529160200191613ebf565b820191906000526020600020905b815481529060010190602001808311613ea257829003601f168201915b50505050508152505090508060a001518160c001518260e0015193509350935050909192565b828054613ef1906155cb565b90600052602060002090601f016020900481019282613f135760008555613f5a565b82601f10613f2c57805160ff1916838001178555613f5a565b82800160010185558215613f5a579182015b82811115613f59578251825591602001919060010190613f3e565b5b509050613f6791906140f4565b5090565b604051806101000160405280600073ffffffffffffffffffffffffffffffffffffffff16815260200160608152602001606081526020016060815260200160608152602001600015158152602001600015158152602001606081525090565b60405180608001604052806000815260200160608152602001600081526020016000151581525090565b508054614000906155cb565b6000825580601f106140125750614031565b601f01602090049060005260206000209081019061403091906140f4565b5b50565b828054614040906155cb565b90600052602060002090601f01602090048101928261406257600085556140b0565b82601f1061407357805485556140b0565b828001600101855582156140b057600052602060002091601f016020900482015b828111156140af578254825591600101919060010190614094565b5b5090506140bd91906140f4565b5090565b6040518060a001604052806000815260200160608152602001600015158152602001600081526020016000151581525090565b5b8082111561410d5760008160009055506001016140f5565b5090565b600061412461411f846153af565b61537e565b90508281526020810184848401111561413c57600080fd5b61414784828561555f565b509392505050565b60008135905061415e8161571f565b92915050565b600082601f83011261417557600080fd5b8135614185848260208601614111565b91505092915050565b60008135905061419d81615736565b92915050565b6000602082840312156141b557600080fd5b60006141c38482850161414f565b91505092915050565b600080604083850312156141df57600080fd5b60006141ed8582860161414f565b925050602083013567ffffffffffffffff81111561420a57600080fd5b61421685828601614164565b9150509250929050565b6000806000806080858703121561423657600080fd5b600085013567ffffffffffffffff81111561425057600080fd5b61425c87828801614164565b945050602085013567ffffffffffffffff81111561427957600080fd5b61428587828801614164565b935050604085013567ffffffffffffffff8111156142a257600080fd5b6142ae87828801614164565b925050606085013567ffffffffffffffff8111156142cb57600080fd5b6142d787828801614164565b91505092959194509250565b600080604083850312156142f657600080fd5b600083013567ffffffffffffffff81111561431057600080fd5b61431c85828601614164565b925050602061432d8582860161418e565b9150509250929050565b60006020828403121561434957600080fd5b60006143578482850161418e565b91505092915050565b6000806040838503121561437357600080fd5b60006143818582860161418e565b92505060206143928582860161414f565b9150509250929050565b600080604083850312156143af57600080fd5b60006143bd8582860161418e565b925050602083013567ffffffffffffffff8111156143da57600080fd5b6143e685828601614164565b9150509250929050565b6000806040838503121561440357600080fd5b60006144118582860161418e565b92505060206144228582860161418e565b9150509250929050565b60006144388383614c65565b905092915050565b600061444c8383614cc8565b905092915050565b60006144608383614d3e565b905092915050565b6144718161550d565b82525050565b6144808161550d565b82525050565b6144976144928261550d565b615646565b82525050565b60006144a88261540f565b6144b28185615462565b9350836020820285016144c4856153df565b8060005b8581101561450057848403895281516144e1858261442c565b94506144ec8361543b565b925060208a019950506001810190506144c8565b50829750879550505050505092915050565b600061451d8261541a565b6145278185615473565b935083602082028501614539856153ef565b8060005b8581101561457557848403895281516145568582614440565b945061456183615448565b925060208a0199505060018101905061453d565b50829750879550505050505092915050565b600061459282615425565b61459c8185615484565b9350836020820285016145ae856153ff565b8060005b858110156145ea57848403895281516145cb8582614454565b94506145d683615455565b925060208a019950506001810190506145b2565b50829750879550505050505092915050565b6146058161551f565b82525050565b6146148161551f565b82525050565b6146238161552b565b82525050565b600061463482615430565b61463e8185615495565b935061464e81856020860161556e565b61465781615701565b840191505092915050565b600061466d82615430565b61467781856154a6565b935061468781856020860161556e565b61469081615701565b840191505092915050565b60006146a86019836154a6565b91507f456c656374696f6e20686173206265656e2064656c65746564000000000000006000830152602082019050919050565b60006146e86024836154a6565b91507f456c656374696f6e2068617320656e6465642e20596f752063616e6e6f74207660008301527f6f74652e000000000000000000000000000000000000000000000000000000006020830152604082019050919050565b600061474e600f836154a6565b91507f566f746572206e6f7420666f756e6400000000000000000000000000000000006000830152602082019050919050565b600061478e6021836154a6565b91507f456c656374696f6e2068617320616c7265616479206265656e2064656c65746560008301527f64000000000000000000000000000000000000000000000000000000000000006020830152604082019050919050565b60006147f46027836154a6565b91507f596f75206861766520616c726561647920766f74656420696e2074686973206560008301527f6c656374696f6e000000000000000000000000000000000000000000000000006020830152604082019050919050565b600061485a6023836154a6565b91507f526573756c7473206861766520616c7265616479206265656e207075626c697360008301527f68656400000000000000000000000000000000000000000000000000000000006020830152604082019050919050565b60006148c0601c836154a6565b91507f596f7520617265206e6f7420617070726f76656420746f20766f7465000000006000830152602082019050919050565b6000614900601a836154a6565b91507f43616e64696461746520686173206265656e2064656c657465640000000000006000830152602082019050919050565b60006149406013836154a6565b91507f496e76616c696420656c656374696f6e204944000000000000000000000000006000830152602082019050919050565b60006149806018836154a6565b91507f566f74657220616c7265616479207265676973746572656400000000000000006000830152602082019050919050565b60006149c0602f836154a6565b91507f456c656374696f6e206973207374696c6c206f6e676f696e672e20526573756c60008301527f747320756e617661696c61626c652e00000000000000000000000000000000006020830152604082019050919050565b6000614a26601a836154a6565b91507f456c656374696f6e20686173206e6f7420656e646564207965740000000000006000830152602082019050919050565b6000614a666022836154a6565b91507f4f6e6c792061646d696e2063616e20706572666f726d2074686973206163746960008301527f6f6e0000000000000000000000000000000000000000000000000000000000006020830152604082019050919050565b6000614acc6017836154a6565b91507f566f746572206973206e6f7420726567697374657265640000000000000000006000830152602082019050919050565b6000614b0c601c836154a6565b91507f456c656374696f6e20697320616c726561647920696e616374697665000000006000830152602082019050919050565b6000614b4c6016836154a6565b91507f456c656374696f6e206973206e6f7420616374697665000000000000000000006000830152602082019050919050565b6000614b8c6014836154a6565b91507f496e76616c69642063616e6469646174652049440000000000000000000000006000830152602082019050919050565b6000614bcc6022836154a6565b91507f43616e6469646174652068617320616c7265616479206265656e2064656c657460008301527f65640000000000000000000000000000000000000000000000000000000000006020830152604082019050919050565b6000614c32601a836154a6565b91507f456c656374696f6e20697320616c7265616479206163746976650000000000006000830152602082019050919050565b6000608083016000830151614c7d6000860182614e0a565b5060208301518482036020860152614c958282614629565b9150506040830151614caa6040860182614e0a565b506060830151614cbd60608601826145fc565b508091505092915050565b600060a083016000830151614ce06000860182614e0a565b5060208301518482036020860152614cf88282614629565b9150506040830151614d0d60408601826145fc565b506060830151614d206060860182614e0a565b506080830151614d3360808601826145fc565b508091505092915050565b600061010083016000830151614d576000860182614468565b5060208301518482036020860152614d6f8282614629565b91505060408301518482036040860152614d898282614629565b91505060608301518482036060860152614da38282614629565b91505060808301518482036080860152614dbd8282614629565b91505060a0830151614dd260a08601826145fc565b5060c0830151614de560c08601826145fc565b5060e083015184820360e0860152614dfd8282614629565b9150508091505092915050565b614e1381615555565b82525050565b614e2281615555565b82525050565b614e39614e3482615555565b61566a565b82525050565b6000614e4b8286614e28565b602082019150614e5b8285614e28565b602082019150614e6b8284614486565b601482019150819050949350505050565b6000602082019050614e916000830184614477565b92915050565b6000604082019050614eac6000830185614477565b614eb9602083018461461a565b9392505050565b600061010082019050614ed6600083018b614477565b8181036020830152614ee8818a614662565b90508181036040830152614efc8189614662565b90508181036060830152614f108188614662565b90508181036080830152614f248187614662565b9050614f3360a083018661460b565b614f4060c083018561460b565b81810360e0830152614f528184614662565b90509998505050505050505050565b60006020820190508181036000830152614f7b818461449d565b905092915050565b60006020820190508181036000830152614f9d8184614512565b905092915050565b60006020820190508181036000830152614fbf8184614587565b905092915050565b6000602082019050614fdc600083018461460b565b92915050565b6000606082019050614ff7600083018661460b565b615004602083018561460b565b81810360408301526150168184614662565b9050949350505050565b6000602082019050615035600083018461461a565b92915050565b600060208201905081810360008301526150558184614662565b905092915050565b600060208201905081810360008301526150768161469b565b9050919050565b60006020820190508181036000830152615096816146db565b9050919050565b600060208201905081810360008301526150b681614741565b9050919050565b600060208201905081810360008301526150d681614781565b9050919050565b600060208201905081810360008301526150f6816147e7565b9050919050565b600060208201905081810360008301526151168161484d565b9050919050565b60006020820190508181036000830152615136816148b3565b9050919050565b60006020820190508181036000830152615156816148f3565b9050919050565b6000602082019050818103600083015261517681614933565b9050919050565b6000602082019050818103600083015261519681614973565b9050919050565b600060208201905081810360008301526151b6816149b3565b9050919050565b600060208201905081810360008301526151d681614a19565b9050919050565b600060208201905081810360008301526151f681614a59565b9050919050565b6000602082019050818103600083015261521681614abf565b9050919050565b6000602082019050818103600083015261523681614aff565b9050919050565b6000602082019050818103600083015261525681614b3f565b9050919050565b6000602082019050818103600083015261527681614b7f565b9050919050565b6000602082019050818103600083015261529681614bbf565b9050919050565b600060208201905081810360008301526152b681614c25565b9050919050565b60006020820190506152d26000830184614e19565b92915050565b600060a0820190506152ed6000830188614e19565b81810360208301526152ff8187614662565b905061530e604083018661460b565b61531b6060830185614e19565b615328608083018461460b565b9695505050505050565b60006080820190506153476000830187614e19565b81810360208301526153598186614662565b90506153686040830185614e19565b615375606083018461460b565b95945050505050565b6000604051905081810181811067ffffffffffffffff821117156153a5576153a46156d2565b5b8060405250919050565b600067ffffffffffffffff8211156153ca576153c96156d2565b5b601f19601f8301169050602081019050919050565b6000819050602082019050919050565b6000819050602082019050919050565b6000819050602082019050919050565b600081519050919050565b600081519050919050565b600081519050919050565b600081519050919050565b6000602082019050919050565b6000602082019050919050565b6000602082019050919050565b600082825260208201905092915050565b600082825260208201905092915050565b600082825260208201905092915050565b600082825260208201905092915050565b600082825260208201905092915050565b60006154c282615555565b91506154cd83615555565b9250827fffffffffffffffffffffffffffffffffffffffffffffffffffffffffffffffff0382111561550257615501615674565b5b828201905092915050565b600061551882615535565b9050919050565b60008115159050919050565b6000819050919050565b600073ffffffffffffffffffffffffffffffffffffffff82169050919050565b6000819050919050565b82818337600083830152505050565b60005b8381101561558c578082015181840152602081019050615571565b8381111561559b576000848401525b50505050565b60006155ac82615555565b915060008214156155c0576155bf615674565b5b600182039050919050565b600060028204905060018216806155e357607f821691505b602082108114156155f7576155f66156a3565b5b50919050565b600061560882615555565b91507fffffffffffffffffffffffffffffffffffffffffffffffffffffffffffffffff82141561563b5761563a615674565b5b600182019050919050565b600061565182615658565b9050919050565b600061566382615712565b9050919050565b6000819050919050565b7f4e487b7100000000000000000000000000000000000000000000000000000000600052601160045260246000fd5b7f4e487b7100000000000000000000000000000000000000000000000000000000600052602260045260246000fd5b7f4e487b7100000000000000000000000000000000000000000000000000000000600052604160045260246000fd5b6000601f19601f8301169050919050565b60008160601b9050919050565b6157288161550d565b811461573357600080fd5b50565b61573f81615555565b811461574a57600080fd5b5056fea26469706673582212201ca6da4ab53f6238164a9feb9595b4fcffe52a6635981c627d59e5bdebfc95f864736f6c63430008000033",
  "immutableReferences": {},
  "source": "// SPDX-License-Identifier: MIT\npragma solidity ^0.8.0;\n\ncontract ElectionManagement {\n    address public admin;\n\n    struct Election {\n        uint id;\n        string name;\n        bool active;\n        uint endTime;\n        bool deleted; \n    }\n\n    struct Candidate {\n        uint id;\n        string name;\n        uint voteCount;\n        bool deleted; \n    }\n\n    struct Voter {\n        address voterAddress;\n        string name;\n        string dob;\n        string gender;\n        string userAddress; \n        bool isApproved;\n        bool isDeclined;\n        string comment; \n        \n    }\n\n    mapping(uint => Election) public elections;\n    mapping(uint => mapping(uint => Candidate)) public electionCandidates; \n    mapping(uint => uint) public candidateCount; \n    mapping(address => Voter) public voters; \n    address[] public voterAddresses; \n    uint public electionCount;\n    mapping(uint => mapping(address => bool)) public hasVoted; \n\n    mapping(uint => mapping(address => bytes32)) public voteHashes; \n    mapping(uint => bool) public resultsPublished;\n\n  \n\n    modifier onlyAdmin() {\n        require(msg.sender == admin, \"Only admin can perform this action\");\n        _;\n    }\n\n    constructor() {\n        admin = msg.sender;\n    }\n\n   \n\n    // Function to create a new election\n    function createElection(string memory _name, uint _endTime) public onlyAdmin {\n        electionCount++;\n        elections[electionCount] = Election(electionCount, _name, false, _endTime, false);\n    }\n\n    // Function to start an election\n    function startElection(uint _electionId) public onlyAdmin {\n        require(_electionId > 0 && _electionId <= electionCount, \"Invalid election ID\");\n        require(!elections[_electionId].active, \"Election is already active\");\n        require(!elections[_electionId].deleted, \"Election has been deleted\");\n        elections[_electionId].active = true;\n    }\n\n    // Function to stop an election\n    function stopElection(uint _electionId) public onlyAdmin {\n        require(_electionId > 0 && _electionId <= electionCount, \"Invalid election ID\");\n        require(elections[_electionId].active, \"Election is already inactive\");\n        require(!elections[_electionId].deleted, \"Election has been deleted\");\n        elections[_electionId].active = false;\n    }\n\n     // Function to delete an election and reorder the IDs\n    function deleteElection(uint _electionId) public onlyAdmin {\n        require(_electionId > 0 && _electionId <= electionCount, \"Invalid election ID\");\n        require(!elections[_electionId].deleted, \"Election has already been deleted\");\n\n        // Delete the specified election\n        delete elections[_electionId];\n\n        // Shift all elections after the deleted one to maintain consecutive IDs\n        for (uint i = _electionId; i < electionCount; i++) {\n            elections[i] = elections[i + 1];  \n            elections[i].id = i;              \n        }\n\n        // Delete the last election entry, which is now duplicated\n        delete elections[electionCount];\n        electionCount--;  \n    }\n\n\n    function checkAndStopElection(uint _electionId) public {\n    require(_electionId > 0 && _electionId <= electionCount, \"Invalid election ID\");\n    require(elections[_electionId].active, \"Election is already inactive\");\n\n    if (block.timestamp >= elections[_electionId].endTime) {\n        elections[_electionId].active = false;\n    }\n}\n\n    // Function to get all election details\n    function getElections() public view returns (Election[] memory) {\n        uint validCount = 0;\n        for (uint i = 1; i <= electionCount; i++) {\n            if (!elections[i].deleted) {\n                validCount++;\n            }\n        }\n\n        Election[] memory allElections = new Election[](validCount);\n        uint index = 0;\n        for (uint i = 1; i <= electionCount; i++) {\n            if (!elections[i].deleted) {\n                allElections[index] = elections[i];\n                index++;\n            }\n        }\n        return allElections;\n    }\n\n    // CANDIDATE MANAGEMENT \n\n    // Function to add a candidate to an election\n    function addCandidate(uint _electionId, string memory _name) public onlyAdmin {\n        require(_electionId > 0 && _electionId <= electionCount, \"Invalid election ID\");\n        require(!elections[_electionId].deleted, \"Election has been deleted\");\n        \n        candidateCount[_electionId]++;\n        uint candidateId = candidateCount[_electionId];\n        electionCandidates[_electionId][candidateId] = Candidate(candidateId, _name, 0, false);\n    }\n\n    // Function to delete a candidate from an election\n    function deleteCandidate(uint _electionId, uint _candidateId) public onlyAdmin {\n        require(_electionId > 0 && _electionId <= electionCount, \"Invalid election ID\");\n        require(_candidateId > 0 && _candidateId <= candidateCount[_electionId], \"Invalid candidate ID\");\n        require(!electionCandidates[_electionId][_candidateId].deleted, \"Candidate has already been deleted\");\n\n        electionCandidates[_electionId][_candidateId].deleted = true; // Set deleted flag to true\n    }\n\n    // Function to get all candidates for a specific election\n    function getCandidates(uint _electionId) public view returns (Candidate[] memory) {\n        require(_electionId > 0 && _electionId <= electionCount, \"Invalid election ID\");\n        require(!elections[_electionId].deleted, \"Election has been deleted\");\n\n        uint validCandidateCount = 0;\n        for (uint i = 1; i <= candidateCount[_electionId]; i++) {\n            if (!electionCandidates[_electionId][i].deleted) {\n                validCandidateCount++;\n            }\n        }\n\n        Candidate[] memory candidates = new Candidate[](validCandidateCount);\n        uint index = 0;\n        for (uint i = 1; i <= candidateCount[_electionId]; i++) {\n            if (!electionCandidates[_electionId][i].deleted) {\n                candidates[index] = electionCandidates[_electionId][i];\n                index++;\n            }\n        }\n\n        return candidates;\n    }\n\n    //  VOTER MANAGEMENT \n\n    event VoterRegistered(address indexed voterAddress);\n    event VoterApproved(address indexed voterAddress);\n    event VoterDeclined(address indexed voterAddress, string comment);\n\n    // Function to register a voter with all details\nfunction registerVoter(string memory _name, string memory _dob, string memory _gender, string memory _userAddress) public {\n    \n    if (voters[msg.sender].isDeclined) {\n        \n        voters[msg.sender].name = _name;\n        voters[msg.sender].dob = _dob;\n        voters[msg.sender].gender = _gender;\n        voters[msg.sender].userAddress = _userAddress;\n        voters[msg.sender].isApproved = false;\n        voters[msg.sender].isDeclined = false;\n        voters[msg.sender].comment = \"\";\n    } else {\n        \n        require(bytes(voters[msg.sender].name).length == 0, \"Voter already registered\");\n        voters[msg.sender] = Voter(msg.sender, _name, _dob, _gender, _userAddress, false, false, \"\");\n        voterAddresses.push(msg.sender); \n    }\n    \n    emit VoterRegistered(msg.sender); \n}\n\n    // Function to approve a voter\n    function approveVoter(address _voterAddress) public onlyAdmin {\n        require(bytes(voters[_voterAddress].name).length > 0, \"Voter not found\");\n        voters[_voterAddress].isApproved = true;\n        voters[_voterAddress].isDeclined = false;\n\n        emit VoterApproved(_voterAddress); \n    }\n\n    // Function to decline a voter\n    function declineVoter(address _voterAddress, string memory _comment) public onlyAdmin {\n        require(bytes(voters[_voterAddress].name).length > 0, \"Voter not found\");\n        voters[_voterAddress].isApproved = false;\n        voters[_voterAddress].isDeclined = true;\n        voters[_voterAddress].comment = _comment;\n\n        emit VoterDeclined(_voterAddress, _comment); \n    }\n\n    // Function to get voter status\n    function getVoterStatus() public view returns (bool, bool, string memory) {\n        require(bytes(voters[msg.sender].name).length > 0, \"Voter is not registered\");\n\n        Voter memory voter = voters[msg.sender];\n        return (voter.isApproved, voter.isDeclined, voter.comment);\n    }\n\n    // Function to get all voter details\n    function getAllVoters() public view returns (Voter[] memory) {\n        Voter[] memory allVoters = new Voter[](voterAddresses.length);\n        for (uint i = 0; i < voterAddresses.length; i++) {\n            allVoters[i] = voters[voterAddresses[i]];\n        }\n        return allVoters;\n    }\n\n     // VOTING FUNCTIONALITY \n\n    event VoteCasted(uint indexed electionId, uint indexed candidateId, address voter , bytes32 voteHash);\n\n    // Function to cast a vote for a candidate in a specific election\n    function vote(uint _electionId, uint _candidateId) public {\n        require(_electionId > 0 && _electionId <= electionCount, \"Invalid election ID\");\n        require(elections[_electionId].active, \"Election is not active\");\n        require(!elections[_electionId].deleted, \"Election has been deleted\");\n        require(block.timestamp < elections[_electionId].endTime, \"Election has ended. You cannot vote.\");\n        require(!hasVoted[_electionId][msg.sender], \"You have already voted in this election\");\n        require(_candidateId > 0 && _candidateId <= candidateCount[_electionId], \"Invalid candidate ID\");\n        require(voters[msg.sender].isApproved, \"You are not approved to vote\");\n        require(!electionCandidates[_electionId][_candidateId].deleted, \"Candidate has been deleted\");\n\n        electionCandidates[_electionId][_candidateId].voteCount++;\n\n        hasVoted[_electionId][msg.sender] = true;\n\n       // Generate and store the vote hash based on election ID, candidate ID, and voter address.\n        bytes32 voteHash = keccak256(abi.encodePacked(_electionId, _candidateId, msg.sender));\n        voteHashes[_electionId][msg.sender] = voteHash;\n\n        emit VoteCasted(_electionId, _candidateId, msg.sender, voteHash);\n\n    }\n\n    // Function to check if a voter has voted in a specific election\n    function hasVotedInElection(uint _electionId) public view returns (bool) {\n        return hasVoted[_electionId][msg.sender];\n    }\n    // Function to retrieve the stored vote hash\n    function getVoteHash(uint _electionId) public view returns (bytes32) {\n        return voteHashes[_electionId][msg.sender];\n\n\n}\n\n\n// Function to get the results of a specific election\nfunction getElectionResults(uint _electionId) public view returns (Candidate[] memory) {\n    // Check if the election ID is valid\n    require(_electionId > 0 && _electionId <= electionCount, \"Invalid election ID\");\n\n    // Ensure the election is not deleted\n    require(!elections[_electionId].deleted, \"Election has been deleted\");\n\n    // Ensure the election has ended\n    require(block.timestamp > elections[_electionId].endTime, \"Election is still ongoing. Results unavailable.\");\n\n    // Fetch all candidates for the election\n    uint validCandidateCount = 0;\n    for (uint i = 1; i <= candidateCount[_electionId]; i++) {\n        if (!electionCandidates[_electionId][i].deleted) {\n            validCandidateCount++;\n        }\n    }\n\n    Candidate[] memory results = new Candidate[](validCandidateCount);\n    uint index = 0;\n    for (uint i = 1; i <= candidateCount[_electionId]; i++) {\n        if (!electionCandidates[_electionId][i].deleted) {\n            results[index] = electionCandidates[_electionId][i];\n            index++;\n        }\n    }\n\n    \n\n    return results;\n}\n\n // Function to publish results for an election\nfunction publishResults(uint _electionId) public onlyAdmin {\n    require(_electionId > 0 && _electionId <= electionCount, \"Invalid election ID\");\n    require(!elections[_electionId].deleted, \"Election has been deleted\");\n    require(block.timestamp >= elections[_electionId].endTime, \"Election has not ended yet\");\n    require(!resultsPublished[_electionId], \"Results have already been published\");\n\n    resultsPublished[_electionId] = true;\n}\n\n// Function to check if results are published (Optional since mapping is public)\nfunction isResultsPublished(uint _electionId) public view returns (bool) {\n    return resultsPublished[_electionId];\n}\n\n}\n\n\n\n",
  "sourcePath": "/Users/mohammedsanober/Desktop/voting-dapp/contracts/contracts/ElectionManagement.sol",
  "compiler": {
    "name": "solc",
    "version": "0.8.0+commit.c7dfd78e.Emscripten.clang"
  },
  "schemaVersion": "3.4.16",
  "updatedAt": "2024-11-25T17:50:55.700Z",
  "networkType": "ethereum",
  "devdoc": {
    "kind": "dev",
    "methods": {},
    "version": 1
  },
  "userdoc": {
    "kind": "user",
    "methods": {},
    "version": 1
  }
}